S00F000044494F5F6C43442E73726563E7
S11300000C942A000C946F030C9447000C94470042
S11300100C9447000C9447000C9447000C94470040
S11300200C9447000C9447000C9447000C94470030
S11300300C9447000C9447000C9447000C94470020
S11300400C943E020C9447000C9447000C94470017
S11300500C94470011241FBECFE5D8E0DEBFCDBF0E
S113006010E0A0E6B0E0E6EAF7E002C005900D92E9
S1130070A036B107D9F720E0A0E6B0E001C01D9298
S1130080A736B207E1F70E9410020C94D1030C9436
S11300900000CF93DF93CDB7DEB72A970FB6F8945D
S11300A0DEBF0FBECDBF80916500909166000196C2
S11300B090936600809365004AE0BE016F5F7F4FB6
S11300C00E949C0345E060E0CE0101960E94CD01B0
S11300D02A960FB6F894DEBF0FBECDBFDF91CF9145
S11300E0089561E080E00E94670261E081E00E947F
S11300F0670240E061E080E00E948F0240E062E03D
S113010080E00E948F020E9413020E941E010E943E
S113011035020E94980389E490E00E9439020E940B
S1130120130281E00E942B0281E00E942B0241E035
S113013066E081E00E94FF022FE986E891E0215009
S113014080409040E1F700C0000040E066E081E0BC
S11301500E94FF022FE986E891E021508040904000
S1130160E1F700C00000E0CFCF93C82F40E061E08A
S113017081E00E94FF0240E062E081E00E94FF0211
S1130180C4FB442740F964E080E00E94FF02C5FB01
S1130190442740F965E080E00E94FF02C6FB442743
S11301A040F966E080E00E94FF024C2F441F442780
S11301B0441F67E080E00E94FF0241E063E081E0C9
S11301C00E94FF0283EC99E00197F1F700C0000060
S11301D040E063E081E00E94FF0280916000882398
S11301E059F14C2F417064E080E00E94FF02C1FB92
S11301F0442740F965E080E00E94FF02C2FB4427E7
S113020040F966E080E00E94FF02C3FB442740F906
S113021067E080E00E94FF0241E063E081E00E9429
S1130220FF0283EC99E00197F1F700C0000040E081
S113023063E081E00E94FF02CF91089561E080E0D5
S11302400E94670261E081E00E9467022FE58AEE66
S113025090E0215080409040E1F700C0000080E22F
S11302600E94B40080E20E94B40080E80E94B400BE
S113027083EC99E00197F1F700C0000080E00E9450
S1130280B40080EF0E94B40083EC99E00197F1F789
S113029000C0000080E00E94B40080E10E94B4002D
S11302A087E893E10197F1F700C0000081E08093B3
S11302B060000895CF93C82F41E061E081E00E947F
S11302C0FF0240E062E081E00E94FF02C4FB442799
S11302D040F964E080E00E94FF02C5FB442740F936
S11302E065E080E00E94FF02C6FB442740F966E017
S11302F080E00E94FF024C2F441F4427441F67E004
S113030080E00E94FF0241E063E081E00E94FF027E
S113031083EC99E00197F1F700C0000040E063E04E
S113032081E00E94FF024C2F417064E080E00E9453
S1130330FF02C1FB442740F965E080E00E94FF0210
S1130340C2FB442740F966E080E00E94FF02C3FB41
S1130350442740F967E080E00E94FF0241E063E047
S113036081E00E94FF0283EC99E00197F1F700C05D
S1130370000040E063E081E00E94FF02CF91089515
S1130380823050F4603140F490E4899F600D112470
S1130390862F80680E94B4000895EF92FF920F9315
S11303A01F93CF93DF938C01D62FF42E642F8D2FC0
S11303B00E94C001E12CC0E01AC02031310524F4B0
S11303C00E945A01CF5F13C02031310539F460E037
S11303D081E00E94C001EE24E39409C0203231057B
S11303E034F491E0E91203C00E945A01CF5FF8018E
S11303F0EC0FF11D8081882361F02C2F30E090E117
S1130400D99F200D311D11242F0D311D20323105AE
S1130410A4F2DF91CF911F910F91FF90EF90089577
S11304200E947100FFCF87B18F7387B987B1806451
S113043087B986B1806286B980B78F7180BF80B773
S113044080BF87B18F7D87B986B1806186B986B157
S1130450806886B9089597B1907E97B997B1892B32
S113046087B986B1806486B9089586B1886086B9F3
S11304700895909362008093610008951F920F92F3
S11304800FB60F9211242F933F934F935F936F9363
S11304907F938F939F93AF93BF93EF93FF93E091D9
S11304A06100F0916200309709F00995FF91EF9196
S11304B0BF91AF919F918F917F916F915F914F9178
S11304C03F912F910F900FBE0F901F9018956130A0
S11304D0A1F4813049F028F0823049F0833051F0A2
S11304E008958FEF8ABB08958FEF87BB08958FEF30
S11304F084BB08958FEF81BB089561110FC08130D3
S113050041F028F0823039F0833039F008951ABA76
S1130510089517BA089514BA089511BA08954111A7
S113052038C0813091F028F08230D9F0833029F13D
S113053008952AB381E090E002C0880F991F6A955C
S1130540E2F7809582238ABB089527B381E090E087
S113055002C0880F991F6A95E2F78095822387BBB2
S1130560089524B381E090E002C0880F991F6A9532
S1130570E2F78095822384BB089521B381E090E063
S113058002C0880F991F6A95E2F78095822381BB88
S11305900895413099F5813089F028F08230C9F00E
S11305A0833011F108952AB381E090E002C0880FEE
S11305B0991F6A95E2F7822B8ABB089527B381E0DD
S11305C090E002C0880F991F6A95E2F7822B87BBDF
S11305D0089524B381E090E002C0880F991F6A95C2
S11305E0E2F7822B84BB089521B381E090E002C03E
S11305F0880F991F6A95E2F7822B81BB08954130D9
S1130600A1F5813089F028F08230C9F0833011F1EE
S113061008952BB381E090E002C0880F991F6A957A
S1130620E2F7822B8BBB089528B381E090E002C0EF
S1130630880F991F6A95E2F7822B88BB089525B32A
S113064081E090E002C0880F991F6A95E2F7822B3F
S113065085BB089522B381E090E002C0880F991F02
S11306606A95E2F7822B82BB0895411137C081302D
S113067091F028F08230D9F0833029F108952BB31A
S113068081E090E002C0880F991F6A95E2F7809597
S113069082238BBB089528B381E090E002C0880FC9
S11306A0991F6A95E2F78095822388BB089525B344
S11306B081E090E002C0880F991F6A95E2F7809567
S11306C0822385BB089522B381E090E002C0880FA5
S11306D0991F6A95E2F78095822382BB08951F9241
S11306E00F920FB60F9211242F933F934F935F9362
S11306F06F937F938F939F93AF93BF93EF93FF93E6
S1130700E0916300F0916400309709F00995FF913E
S1130710EF91BF91AF919F918F917F916F915F9175
S11307204F913F912F910F900FBE0F901F901895EE
S11307308FB780688FBF0895BB274A3031F499235F
S113074022F4BDE2909581959F4F0C94A803BB279A
S1130750FB015527AA27880F991FAA1FA41710F079
S1130760A41B83955051B9F7A05DAA3308F0A95D85
S1130770A193009779F7B111B1931192CB010C9425
S1130780C103DC01FC01672F71917723E1F73297F4
S113079004C07C916D9370836291AE17BF07C8F358
S10907A00895F894FFCF58
S9030000FC
