:100000000C942A000C94A8000C9447000C94470010
:100010000C9447000C9447000C9447000C94470044
:100020000C9447000C9447000C9447000C94D100AA
:100030000C9447000C9447000C9447000C94470024
:100040000C9457000C9447000C9447000C94470004
:100050000C94470011241FBECFE5D8E0DEBFCDBF12
:1000600010E0A0E6B0E0E6E3F2E002C005900D92F9
:10007000A036B107D9F720E0A0E6B0E001C01D929C
:10008000A636B207E1F70E9454000C9419010C94B3
:1000900000000E94FA0061E080E00E9480000E945F
:1000A00015010E941101FBCF0E944900FFCF1F9252
:1000B0000F920FB60F9211242F933F934F935F939C
:1000C0006F937F938F939F93AF93BF93EF93FF9320
:1000D000E0916000F0916100309709F00995FF917F
:1000E000EF91BF91AF919F918F917F916F915F91B0
:1000F0004F913F912F910F900FBE0F901F90189529
:100100006130A1F4813049F028F0823049F0833029
:1001100051F008958FEF8ABB08958FEF87BB089544
:100120008FEF84BB08958FEF81BB089561110FC0DD
:10013000813041F028F0823039F0833039F0089571
:100140001ABA089517BA089514BA089511BA0895FD
:100150001F920F920FB60F9211242F933F934F933C
:100160005F936F937F938F939F93AF93BF93EF931F
:10017000FF93E0916200F0916300309709F00995D8
:10018000FF91EF91BF91AF919F918F917F916F916F
:100190005F914F913F912F910F900FBE0F901F9045
:1001A00018951F920F920FB60F9211242F933F9321
:1001B0004F935F936F937F938F939F93AF93BF936F
:1001C000EF93FF93E0916400F0916500309709F0A0
:1001D0000995FF91EF91BF91AF919F918F917F9181
:1001E0006F915F914F913F912F910F900FBE0F90A4
:1001F0001F9018958CE089B910BC8AB180618AB9CA
:100200008AB188608AB980B5806880BD80B5866013
:1002100080BD80B580BD80B580BD8BB182608BB95B
:1002200008955D9BFECF8CB908955F9BFECF8CB186
:060230000895F894FFCFD1
:00000001FF
