:100000000C942A000C942B080C9447000C94470085
:100010000C9447000C9447000C9447000C94470044
:100020000C9447000C9447000C9447000C9454081F
:100030000C9447000C9447000C9447000C94470024
:100040000C94B9060C9447000C9447000C9447009C
:100050000C94470011241FBECFE5D8E0DEBFCDBF12
:1000600011E0A0E6B0E0EEEFF0E102C005900D92E5
:10007000A03AB107D9F721E0A0EAB1E001C01D9292
:10008000A73BB207E1F70E94B4060C947D080C94DC
:1000900000000F931F93CF9340E060E080E690E074
:1000A0000E949D0660E081E00E94900600E010E062
:1000B0000FC080E00E944F04C82F8823D1F3682F1F
:1000C000C8010E9418088C2F0E942A060F5F1F4F3C
:1000D0000430110574F381E00E94880540E060E07F
:1000E0008FE690E00E949D0663E584E090E00E9428
:1000F0001808CF911F910F910895CF92DF92EF9240
:10010000FF920F931F93CF9340E060E08EE790E063
:100110000E949D0660E081E00E949006C12CD12CD7
:1001200054C080E00E944F04C82F8823D1F30E945E
:100130002A06C8010E942308C81711F0E12CF12CEF
:100140000F5F1F4F05C000E010E0EE24E394F12C98
:100150000430110534F3EA94EF2861F481E00E9441
:10016000880540E060E08EE890E00E949D0680E017
:1001700090E030C081E00E94880540E060E084E9C2
:1001800090E00E949D068FE39DE023E08150904027
:100190002040E1F700C0000040E060E08AE990E024
:1001A0000E949D0684E0C816D10461F481E00E949B
:1001B000880540E060E086EA90E00E949D0681E0CC
:1001C00090E008C09FEFC91AD90A25E0C216D104F1
:1001D0000CF4B9CFCF911F910F91FF90EF90DF906A
:1001E000CF900895CF9381E00E94880540E060E0C1
:1001F0008CEA90E00E949D062FE986E891E021506C
:1002000080409040E1F700C0000081E00E94880536
:1002100040E060E087EB90E00E949D0680E00E9455
:100220004F04C82F8823D1F30E942A068C2F90E018
:10023000CF910895CF9340E060E083E00E947A0779
:1002400041E061E083E00E947A0740E062E083E001
:100250000E947A0781E00E94880540E060E088EC17
:1002600090E00E949D0640E061E088ED90E00E94F1
:100270009D0680E00E944F04C82F8823D1F30E947E
:100280002A06C23359F118F4C13341F081C0C33397
:1002900009F443C0C43309F45EC07AC081E00E940F
:1002A000880540E060E087EE90E00E949D0640E017
:1002B00061E083EF90E00E949D0680E00E944F0481
:1002C000C82F8823D1F30E942A06C13309F460C0E5
:1002D000C23309F45DC00E941A015AC081E00E9435
:1002E000880540E060E08EEF90E00E949D0640E0CF
:1002F00061E083EF90E00E949D0680E00E944F0441
:10030000C82F8823D1F30E942A06C13309F440C0C4
:10031000C233F1F10E941A013BC081E00E948805BE
:1003200040E060E08AE091E00E949D0640E061E0EC
:1003300083EF90E00E949D0680E00E944F04C82F4A
:100340008823D1F30E942A06C13311F1C23301F18F
:100350000E941A011DC081E00E94880540E060E013
:1003600086E191E00E949D0640E061E083EF90E02D
:100370000E949D0680E00E944F04C82F8823D1F37D
:100380000E942A06C13321F0C23311F00E941A01E3
:10039000CF910895CF93DF9341E060E083E00E9426
:1003A0007A0740E061E083E00E947A0740E062E083
:1003B00083E00E947A0781E00E94880540E060E0C7
:1003C00088EC90E00E949D0640E061E082E291E0CE
:1003D0000E949D0680E00E944F04C82F8823D1F31D
:1003E0000E942A06C23379F118F4C13341F049C1A1
:1003F000C33309F44CC0C43309F46DC042C181E079
:100400000E94880540E060E087EE90E00E949D0633
:1004100040E061E083EF90E00E949D0680E00E9452
:100420004F04C82F8823D1F30E942A06C13319F440
:100430000E94CA0126C1C23319F40E94CA0121C117
:100440000E94CA011EC181E00E94880540E060E070
:100450008EEF90E00E949D0640E061E083EF90E027
:100460000E949D0680E00E944F04C82F8823D1F38C
:100470000E942A06C13319F40E94CA0102C1C23384
:1004800019F40E94CA01FDC00E94CA01FAC081E0AD
:100490000E94880540E060E08AE091E00E949D06AD
:1004A00040E061E083EF90E00E949D0680E00E94C2
:1004B0004F04C82F8823D1F30E942A06C13319F4B0
:1004C0000E94CA01DEC0C23319F40E94CA01D9C019
:1004D0000E94CA01D6C081E00E94880540E060E029
:1004E00081E391E00E949D0640E061E08FE391E0AE
:1004F0000E949D0680E00E944F04C82F8823D1F3FC
:100500000E942A06C23379F118F4C13341F0B9C010
:10051000C33309F44CC0C43309F4B1C0B2C081E0A4
:100520000E94880540E060E086E191E00E949D061F
:1005300040E061E08CE491E00E949D0680E00E9432
:100540004F04C82F8823D1F30E942A06C13319F41F
:100550000E94CA0196C0C23319F40E94CA0191C018
:100560000E94CA018EC081E00E94880540E060E0E0
:1005700088E591E00E949D0640E061E08CE491E016
:100580000E949D0680E00E944F04C82F8823D1F36B
:100590000E942A06C13319F40E94CA0172C0C233F4
:1005A00019F40E94CA016DC00E94CA016AC081E0AC
:1005B0000E94880540E060E081E691E00E949D068F
:1005C00040E061E08DE691E00E949D0680E00E949F
:1005D0004F04C82F8823D1F30E942A06C23379F131
:1005E000C33309F44AC0C13309F049C081E00E9415
:1005F000880540E060E08CE791E00E949D06C0E045
:10060000D0E019C080E00E944F048823D9F30E94F3
:100610002A0660E08BE08C1B0E94900680E00E941E
:100620002A068FE996E821E0815090402040E1F7CA
:1006300000C000002196C230D10524F320C081E023
:100640000E94880540E060E087E891E00E949D06F6
:1006500040E061E082E591E00E949D0680E00E941A
:100660004F04C82F8823D1F30E942A06C13339F0E2
:10067000C23329F00E94CA0102C00E94CA010E942E
:10068000CA01DF91CF9108950E9426040E94F205CD
:1006900041E060E083E00E940A0741E061E083E01E
:1006A0000E940A0741E062E083E00E940A0784E0BA
:1006B00090E00E942308833519F00E94490021C070
:1006C0000E947D000197E9F42FE38DE093E0215033
:1006D00080409040E1F700C0000081E00E94880562
:1006E00040E060E083E991E00E949D062FEF88E002
:1006F0009DE3215080409040E1F700C000000E943F
:100700007D000E94F200813319F40E94CA0108950D
:100710000E941A010895813029F138F0823009F4DD
:100720003EC0833009F456C06FC064E080E00E9490
:10073000EA07882309F46AC065E080E00E94EA07BE
:10074000882309F465C066E080E00E94EA078823F8
:1007500009F460C067E080E00E94EA0781115CC094
:100760008FE2089564E080E00E94EA07882309F49C
:1007700055C065E080E00E94EA07882309F450C074
:1007800066E080E00E94EA07882309F44BC067E036
:1007900080E00E94EA07811147C08AE2089564E080
:1007A00080E00E94EA07882309F440C065E080E009
:1007B0000E94EA078823E1F166E080E00E94EA07F0
:1007C0008823C1F167E080E00E94EA07811134C00C
:1007D0008DE2089564E080E00E94EA07882371F1C9
:1007E00065E080E00E94EA07882351F166E080E03E
:1007F0000E94EA07882331F167E080E00E94EA075F
:10080000811122C08BE2089580E0089587E3089566
:1008100088E3089589E3089580E0089584E30895C6
:1008200085E3089586E3089580E0089581E30895BF
:1008300082E3089583E3089580E008958FE60895A4
:1008400080E308958DE3089580E0089541E060E03D
:1008500080E00E940A0741E061E080E00E940A0710
:1008600041E062E080E00E940A0741E063E080E04E
:100870000E940A0740E064E080E00E940A0740E02E
:1008800065E080E00E940A0740E066E080E00E94A8
:100890000A0740E067E080E00E940A0708950F938E
:1008A0001F93CF93DF93811103C00BEC14E002C0C0
:1008B0000BE813E0C0E0D0E054C0209799F48BB36C
:1008C0008E7F8BBB8BB382608BBB8BB384608BBB07
:1008D0008BB388608BBB8C2FF8010995882309F4B2
:1008E0003FC044C0C130D10591F48BB381608BBB54
:1008F0008BB38D7F8BBB8BB384608BBB8BB38860DA
:100900008BBB8C2FF8010995882351F12FC0C23081
:10091000D10591F48BB381608BBB8BB382608BBBB1
:100920008BB38B7F8BBB8BB388608BBB8C2FF80119
:1009300009958823A9F01AC0C330D10589F48BB377
:1009400081608BBB8BB382608BBB8BB384608BBBB2
:100950008BB3877F8BBB8C2FF8010995811106C063
:100960002196C430D1050CF4A8CF80E0DF91CF915F
:100970001F910F910895CF93DF93EA010E94EA0738
:100980009881891302C092E001C0982F8883892F33
:10099000DF91CF910895813069F138F0823009F408
:1009A0004EC0833009F470C091C040EA51E064E069
:1009B00080E00E94BB04882309F48AC041EA51E028
:1009C00065E080E00E94BB04882309F483C042EA0A
:1009D00051E066E080E00E94BB04882309F47CC0FB
:1009E00043EA51E067E080E00E94BB04811176C0D9
:1009F0008FE2089544EA51E064E080E00E94BB0485
:100A0000882309F46DC045EA51E065E080E00E946A
:100A1000BB04882309F466C046EA51E066E080E042
:100A20000E94BB04882309F45FC047EA51E067E0F5
:100A300080E00E94BB04811159C08AE2089548EA0F
:100A400051E064E080E00E94BB04882309F450C0B8
:100A500049EA51E065E080E00E94BB04882309F484
:100A600049C04AEA51E066E080E00E94BB04882366
:100A700009F442C04BEA51E067E080E00E94BB0409
:100A800081113CC08DE208954CEA51E064E080E0C1
:100A90000E94BB048823A1F14DEA51E065E080E0AB
:100AA0000E94BB04882371F14EEA51E066E080E0C9
:100AB0000E94BB04882341F14FEA51E067E080E0E7
:100AC0000E94BB04811122C08BE2089580E008954A
:100AD00087E3089588E3089589E3089580E0089501
:100AE00084E3089585E3089586E3089580E00895FA
:100AF00081E3089582E3089583E3089580E00895F3
:100B00008FE6089580E308958DE3089580E00895C9
:100B1000CF93C82F40E060E082E00E947A0740E077
:100B200061E082E00E947A07C4FB442740F964E058
:100B300082E00E947A07C5FB442740F965E082E025
:100B40000E947A07C6FB442740F966E082E00E94D3
:100B50007A074C2F441F4427441F67E082E00E941D
:100B60007A0741E062E082E00E947A0783EC99E034
:100B70000197F1F700C0000040E062E082E00E94CF
:100B80007A078091B001882359F14C2F417064E0BD
:100B900082E00E947A07C1FB442740F965E082E0C9
:100BA0000E947A07C2FB442740F966E082E00E9477
:100BB0007A07C3FB442740F967E082E00E947A0786
:100BC00041E062E082E00E947A0783EC99E00197BD
:100BD000F1F700C0000040E062E082E00E947A0786
:100BE000CF91089561E082E00E94E2062FE58AEE4F
:100BF00090E0215080409040E1F700C0000080E28A
:100C00000E94880580E20E94880580E80E9488058D
:100C100083EC99E00197F1F700C0000080E00E94AA
:100C2000880580EF0E94880583EC99E00197F1F731
:100C300000C0000080E00E94880580E10E948805D5
:100C400087E893E10197F1F700C0000081E080930D
:100C5000B0010895CF93C82F41E060E082E00E9488
:100C60007A0740E061E082E00E947A07C4FB4427F3
:100C700040F964E082E00E947A07C5FB442740F90E
:100C800065E082E00E947A07C6FB442740F966E0EF
:100C900082E00E947A074C2F441F4427441F67E0DC
:100CA00082E00E947A0741E062E082E00E947A07D7
:100CB00083EC99E00197F1F700C0000040E062E0AA
:100CC00082E00E947A074C2F417064E082E00E942B
:100CD0007A07C1FB442740F965E082E00E947A0769
:100CE000C2FB442740F966E082E00E947A07C3FB1A
:100CF000442740F967E082E00E947A0741E062E021
:100D000082E00E947A0783EC99E00197F1F700C036
:100D1000000040E062E082E00E947A07CF910895EF
:100D2000823050F4603140F490E4899F600D1124CA
:100D3000862F80680E94880508950F931F93CF9394
:100D40008C01862F642F0E949006C0E003C00E9491
:100D50002A06CF5FF801EC0FF11D80818111F7CFDA
:100D6000CF911F910F9108950E94440380E090E07D
:100D700008951F920F920FB60F9211242F933F9355
:100D80004F935F936F937F938F939F93AF93BF9393
:100D9000EF93FF93E091B101F091B201309709F028
:100DA0000995FF91EF91BF91AF919F918F917F91A5
:100DB0006F915F914F913F912F910F900FBE0F90C8
:100DC0001F9018956130A1F4813049F028F08230ED
:100DD00049F0833051F008958FEF8ABB08958FEF6B
:100DE00087BB08958FEF84BB08958FEF81BB089573
:100DF00061110FC0813041F028F0823039F083302A
:100E000039F008951ABA089517BA089514BA0895D2
:100E100011BA0895411138C0813091F028F0823024
:100E2000D9F0833029F108952AB381E090E002C01F
:100E3000880F991F6A95E2F7809582238ABB0895EF
:100E400027B381E090E002C0880F991F6A95E2F70E
:100E50008095822387BB089524B381E090E002C08F
:100E6000880F991F6A95E2F78095822384BB0895C5
:100E700021B381E090E002C0880F991F6A95E2F7E4
:100E80008095822381BB0895413099F5813089F0A6
:100E900028F08230C9F0833011F108952AB381E03F
:100EA00090E002C0880F991F6A95E2F7822B8ABBF7
:100EB000089527B381E090E002C0880F991F6A95DA
:100EC000E2F7822B87BB089524B381E090E002C053
:100ED000880F991F6A95E2F7822B84BB089521B38E
:100EE00081E090E002C0880F991F6A95E2F7822B9B
:100EF00081BB08954130A1F5813089F028F082301E
:100F0000C9F0833011F108952BB381E090E002C065
:100F1000880F991F6A95E2F7822B8BBB089528B33F
:100F200081E090E002C0880F991F6A95E2F7822B5A
:100F300088BB089525B381E090E002C0880F991F17
:100F40006A95E2F7822B85BB089522B381E090E099
:100F500002C0880F991F6A95E2F7822B82BB089521
:100F6000411137C0813091F028F08230D9F08330C0
:100F700029F108952BB381E090E002C0880F991FFA
:100F80006A95E2F7809582238BBB089528B381E0B0
:100F900090E002C0880F991F6A95E2F7809582233E
:100FA00088BB089525B381E090E002C0880F991FA7
:100FB0006A95E2F78095822385BB089522B381E08C
:100FC00090E002C0880F991F6A95E2F7809582230E
:100FD00082BB0895813079F028F08230A9F0833007
:100FE000E1F024C089B390E002C0959587956A9599
:100FF000E2F78170089586B390E002C095958795D9
:101000006A95E2F78170089583B390E002C09595E8
:1010100087956A95E2F78170089589B390E002C0E0
:10102000959587956A95E2F78170089580E0089517
:10103000E199FECF8EBB6DBB8CB384608CBB8CB34F
:1010400082608CBB0895E199FECF8EBB8CB381602A
:101050008CBB8DB308951F920F920FB60F9211247F
:101060002F933F934F935F936F937F938F939F93B0
:10107000AF93BF93EF93FF93E091B301F091B4016D
:10108000309709F00995FF91EF91BF91AF919F9132
:101090008F917F916F915F914F913F912F910F9021
:1010A0000FBE0F901F9018951F920F920FB60F92C0
:1010B00011242F933F934F935F936F937F938F935D
:1010C0009F93AF93BF93EF93FF93E091B501F0919E
:1010D000B601309709F00995FF91EF91BF91AF915B
:1010E0009F918F917F916F915F914F913F912F9140
:0E10F0000F900FBE0F901F901895F894FFCF31
:1010FE005365742041444D494E2050617373007006
:10110E00617373776F726420736176656400656EC8
:10111E0074657220796F75722070617373005269F5
:10112E006768740057726F6E6700656E7465722023
:10113E00616761696E00426C6F636B0053656C652D
:10114E0063744D6F646500312941444D494E202032
:10115E0032294755455354003129524F4F4D3120B6
:10116E003229524F4F4D32003329524F4F4D3334A7
:10117E0029524F4F4D3400524F4F4D31203A3129A5
:10118E004F4E0032294F4646332952455400524F96
:10119E004F4D32203A31294F4E00524F4F4D332092
:1011AE003A31294F4E00524F4F4D34203A31294F8C
:1011BE004E003329524F4F4D332034296D6F7265D7
:1011CE00003129524F4F4D342032295456200033CE
:1011DE0029434F4E442034295245540032294F465C
:1011EE0046203329524554005456203A31294F4E49
:1011FE000031295345542054454D50200032294387
:10120E004F4E54524F4C332952455400534554209F
:10121E0054454D50203A0031294F4E2C2032294F43
:10122E004646007761697432307365636F6E640091
:00000001FF
