:100000000C942A000C9447000C9447000C94470071
:100010000C9447000C9447000C9447000C94470044
:100020000C9447000C9447000C9447000C94470034
:100030000C9447000C9447000C9447000C94470024
:100040000C9447000C9447000C9447000C94470014
:100050000C94470011241FBECFE5D8E0DEBFCDBF12
:1000600010E0A0E6B0E0E2E9F4E002C005900D92F5
:10007000A836B107D9F720E0A8E6B0E001C01D928C
:10008000A936B207E1F70E94AC010C9447020C9428
:100090000000CF93DF93CDB7DEB728970FB6F89463
:1000A000DEBF0FBECDBF0E94D30088E0E0E6F0E0E7
:1000B000DE01119601900D928A95E1F760E0CE0184
:1000C00001960E94820140E060E080E00E94A10170
:1000D000FFCFCF93C82F40E061E081E00E94D701BD
:1000E00040E062E081E00E94D701C4FB442740F970
:1000F00064E080E00E94D701C5FB442740F965E039
:1001000080E00E94D701C6FB442740F966E080E00A
:100110000E94D7014C2F441F4427441F67E080E012
:100120000E94D70141E063E081E00E94D70183ECA7
:1001300099E00197F1F700C0000040E063E081E042
:100140000E94D70180916800882359F14C2F41709B
:1001500064E080E00E94D701C1FB442740F965E0DC
:1001600080E00E94D701C2FB442740F966E080E0AE
:100170000E94D701C3FB442740F967E080E00E945A
:10018000D70141E063E081E00E94D70183EC99E070
:100190000197F1F700C0000040E063E081E00E94B9
:1001A000D701CF91089561E080E00E94AF0161E046
:1001B00081E00E94AF012FE58AEE90E0215080405F
:1001C0009040E1F700C0000080E20E94690080E2F8
:1001D0000E94690080E80E94690083EC99E0019721
:1001E000F1F700C0000080E00E94690080EF0E94EB
:1001F000690083EC99E00197F1F700C0000080E00E
:100200000E94690080E10E94690087E893E10197FC
:10021000F1F700C0000081E0809368000895CF935B
:10022000C82F41E061E081E00E94D70140E062E038
:1002300081E00E94D701C4FB442740F964E080E0DC
:100240000E94D701C5FB442740F965E080E00E9489
:10025000D701C6FB442740F966E080E00E94D70141
:100260004C2F441F4427441F67E080E00E94D701C1
:1002700041E063E081E00E94D70183EC99E00197BF
:10028000F1F700C0000040E063E081E00E94D70188
:100290004C2F417064E080E00E94D701C1FB4427ED
:1002A00040F965E080E00E94D701C2FB442740F995
:1002B00066E080E00E94D701C3FB442740F967E075
:1002C00080E00E94D70141E063E081E00E94D70115
:1002D00083EC99E00197F1F700C0000040E063E093
:1002E00081E00E94D701CF910895823050F46031AF
:1002F00040F490E4899F600D1124862F80680E944D
:10030000690008950F931F93CF938C01683090F488
:10031000862F880F880F880F80640E946900C0E0D4
:1003200007C0F801EC0FF11D80810E940F01CF5F23
:10033000C830B8F382E00E946900CF911F910F91FD
:100340000895CF93C82F862F642F0E9475018C2F9C
:100350000E940F01CF9108950E944900FFCF6130A4
:10036000A1F4813049F028F0823049F0833051F017
:1003700008958FEF8ABB08958FEF87BB08958FEFA5
:1003800084BB08958FEF81BB089561110FC0813048
:1003900041F028F0823039F0833039F008951ABAEC
:1003A000089517BA089514BA089511BA08954130FE
:1003B000A1F5813089F028F08230C9F0833011F145
:1003C00008952BB381E090E002C0880F991F6A95D1
:1003D000E2F7822B8BBB089528B381E090E002C046
:1003E000880F991F6A95E2F7822B88BB089525B381
:1003F00081E090E002C0880F991F6A95E2F7822B96
:1004000085BB089522B381E090E002C0880F991F58
:100410006A95E2F7822B82BB0895411137C0813083
:1004200091F028F08230D9F0833029F108952BB370
:1004300081E090E002C0880F991F6A95E2F78095ED
:1004400082238BBB089528B381E090E002C0880F1F
:10045000991F6A95E2F78095822388BB089525B39A
:1004600081E090E002C0880F991F6A95E2F78095BD
:10047000822385BB089522B381E090E002C0880FFB
:10048000991F6A95E2F78095822382BB0895F894BC
:02049000FFCF9C
:080492000E081E00040404041E
:00000001FF
