:100000000C942A000C9441010C9447000C94470076
:100010000C9447000C9447000C9447000C94470044
:100020000C9447000C9447000C9447000C947B01FF
:100030000C9447000C9447000C9447000C94470024
:100040000C9470000C9447000C9447000C944700EB
:100050000C94470011241FBECFE5D8E0DEBFCDBF12
:1000600010E0A0E6B0E0ECE4F3E002C005900D92F1
:10007000A036B107D9F720E0A0E6B0E001C01D929C
:10008000A636B207E1F70E946D000C94A4010C940F
:10009000000041E064E081E00E94D100089561E049
:1000A00081E00E94990089E490E00E9476010E941C
:1000B0006A010E946E0161E082E00E94990062B7CD
:1000C00082E00E94C1002FE784E89EE12150804039
:1000D0009040E1F700C00000F2CF0E944F00FFCF38
:1000E0001F920F920FB60F9211242F933F934F93AD
:1000F0005F936F937F938F939F93AF93BF93EF9390
:10010000FF93E0916000F0916100309709F009954C
:10011000FF91EF91BF91AF919F918F917F916F91DF
:100120005F914F913F912F910F900FBE0F901F90B5
:1001300018956130A1F4813049F028F0823049F0FF
:10014000833051F008958FEF8ABB08958FEF87BBFE
:1001500008958FEF84BB08958FEF81BB08956111DF
:100160000FC0813041F028F0823039F0833039F00F
:1001700008951ABA089517BA089514BA089511BACD
:100180000895813041F028F0823039F0833039F021
:1001900008956BBB089568BB089565BB089562BB65
:1001A00008954130A1F5813089F028F08230C9F0FE
:1001B000833011F108952BB381E090E002C0880FE5
:1001C000991F6A95E2F7822B8BBB089528B381E0D3
:1001D00090E002C0880F991F6A95E2F7822B88BBD6
:1001E000089525B381E090E002C0880F991F6A95B9
:1001F000E2F7822B85BB089522B381E090E002C034
:10020000880F991F6A95E2F7822B82BB08954111EE
:1002100037C0813091F028F08230D9F0833029F155
:1002200008952BB381E090E002C0880F991F6A9572
:10023000E2F7809582238BBB089528B381E090E09C
:1002400002C0880F991F6A95E2F78095822388BBC8
:10025000089525B381E090E002C0880F991F6A9548
:10026000E2F78095822385BB089522B381E090E078
:1002700002C0880F991F6A95E2F78095822382BB9E
:1002800008951F920F920FB60F9211242F933F9350
:100290004F935F936F937F938F939F93AF93BF938E
:1002A000EF93FF93E0916200F0916300309709F0C3
:1002B0000995FF91EF91BF91AF919F918F917F91A0
:1002C0006F915F914F913F912F910F900FBE0F90C3
:1002D0001F9018958FB780688FBF089583B783B735
:1002E00083B783B789B789B789B7089590936500B5
:1002F0008093640008951F920F920FB60F921124FD
:100300002F933F934F935F936F937F938F939F931D
:10031000AF93BF93EF93FF93E0916400F09165007A
:10032000309709F00995FF91EF91BF91AF919F919F
:100330008F917F916F915F914F913F912F910F908E
:0C0340000FBE0F901F901895F894FFCF8F
:00000001FF
