S00F000044494F5F6C43442E73726563E7
S11300000C942A000C941D030C9447000C94470094
S11300100C9447000C9447000C9447000C94470040
S11300200C9447000C9447000C9447000C946B0309
S11300300C9447000C9447000C9447000C94470020
S11300400C94EC010C9447000C9447000C9447006A
S11300500C94470011241FBECFE5D8E0DEBFCDBF0E
S113006010E0A0E6B0E0ECE2F7E002C005900D92EB
S1130070A036B107D9F720E0A0E6B0E001C01D9298
S1130080A736B207E1F70E94C2010C9494030C94C2
S113009000000E94C7010E948A0161E083E00E947F
S11300A0150240E060E080E00E943D0261E082E0F1
S11300B00E9415020E9446030E946503833091F159
S11300C028F4813059F08230E9F0F6CF853009F414
S11300D04FC0D8F1863009F45EC0EECF0E946503AC
S11300E08E3431F441E067E083E00E94AD0207C042
S11300F0863429F440E067E083E00E94AD020E9468
S11301006503DACF0E9465038E3431F441E066E082
S113011083E00E94AD02D0CF40E066E083E00E941D
S1130120AD02CACF0E9465038E3431F441E065E02C
S113013083E00E94AD02C0CF863409F0BDCF40E019
S113014065E083E00E94AD02B7CF0E9465038E3460
S113015031F441E064E083E00E94AD02ADCF863427
S113016009F0AACF40E064E083E00E94AD02A4CF8E
S11301700E9465038E3431F441E063E083E00E9421
S1130180AD029ACF863409F097CF40E063E083E074
S11301900E94AD0291CF0E946503833481F40E94D2
S11301A065038E3431F441E062E083E00E94AD02E5
S11301B083CF40E062E083E00E94AD027DCF8335CF
S11301C009F07ACF0E946503C82FD0E0E097CC0FE6
S11301D08C2F880F880FC80F0E9465038C0FC0ED09
S11301E0C80F80E00E94DF0187EA91E60197F1F7EA
S11301F000C000000E94E9019C012750310922310E
S1130200310508F401979C01295131092231310546
S113021008F402978B32910508F00397CC0F2C2F2A
S113022030E02817390730F441E062E083E00E94AF
S1130230AD0242CF40E062E083E00E94AD023CCFD9
S1130240CF93C82F40E060E082E00E94AD0240E01E
S113025061E082E00E94AD02C4FB442740F964E0FF
S113026082E00E94AD02C5FB442740F965E082E0CC
S11302700E94AD02C6FB442740F966E082E00E947A
S1130280AD024C2F441F4427441F67E082E00E94C4
S1130290AD0241E062E082E00E94AD0283EC99E0AD
S11302A00197F1F700C0000040E062E082E00E94A4
S11302B0AD0280916000882359F14C2F417064E0B5
S11302C082E00E94AD02C1FB442740F965E082E070
S11302D00E94AD02C2FB442740F966E082E00E941E
S11302E0AD02C3FB442740F967E082E00E94AD02FF
S11302F041E062E082E00E94AD0283EC99E0019764
S1130300F1F700C0000040E062E082E00E94AD022C
S1130310CF91089561E082E00E9415022FE58AEEF4
S113032090E0215080409040E1F700C0000080E25E
S11303300E94200180E20E94200180E80E942001A6
S113034083EC99E00197F1F700C0000080E00E947F
S1130350200180EF0E94200183EC99E00197F1F7DE
S113036000C0000080E00E94200180E10E94200182
S113037087E893E10197F1F700C0000081E08093E2
S1130380600008950E94490080E090E0089587B1DC
S11303908F7387B987B1806487B986B1806286B963
S11303A080B78F7180BF80B780BF87B18F7D87B9D9
S11303B086B1806186B986B1806886B9089597B19F
S11303C0907E97B997B1892B87B986B1806486B935
S11303D0089584B195B108951F920F920FB60F92AC
S11303E011242F933F934F935F936F937F938F9336
S11303F09F93AF93BF93EF93FF93E0916100F091CC
S11304006200309709F00995FF91EF91BF91AF9188
S11304109F918F917F916F915F914F913F912F9118
S11304200F900FBE0F901F9018956130A1F481308A
S113043049F028F0823049F0833051F008958FEF6D
S11304408ABB08958FEF87BB08958FEF84BB08950F
S11304508FEF81BB089561110FC0813041F028F006
S1130460823039F0833039F008951ABA089517BAF2
S1130470089514BA089511BA0895411138C081300D
S113048091F028F08230D9F0833029F108952AB30D
S113049081E090E002C0880F991F6A95E2F7809589
S11304A082238ABB089527B381E090E002C0880FBD
S11304B0991F6A95E2F78095822387BB089524B338
S11304C081E090E002C0880F991F6A95E2F7809559
S11304D0822384BB089521B381E090E002C0880F99
S11304E0991F6A95E2F78095822381BB0895413074
S11304F099F5813089F028F08230C9F0833011F108
S113050008952AB381E090E002C0880F991F6A958C
S1130510E2F7822B8ABB089527B381E090E002C002
S1130520880F991F6A95E2F7822B87BB089524B33D
S113053081E090E002C0880F991F6A95E2F7822B50
S113054084BB089521B381E090E002C0880F991F15
S11305506A95E2F7822B81BB08954130A1F5813081
S113056089F028F08230C9F0833011F108952BB35B
S113057081E090E002C0880F991F6A95E2F7822B10
S11305808BBB089528B381E090E002C0880F991FC7
S11305906A95E2F7822B88BB089525B381E090E049
S11305A002C0880F991F6A95E2F7822B85BB0895D4
S11305B022B381E090E002C0880F991F6A95E2F7A8
S11305C0822B82BB0895411137C0813091F028F00D
S11305D08230D9F0833029F108952BB381E090E083
S11305E002C0880F991F6A95E2F7809582238BBB1E
S11305F0089528B381E090E002C0880F991F6A959E
S1130600E2F78095822388BB089525B381E090E0CA
S113061002C0880F991F6A95E2F78095822385BBF3
S1130620089522B381E090E002C0880F991F6A9573
S1130630E2F78095822382BB08951F920F920FB632
S11306400F9211242F933F934F935F936F937F9354
S11306508F939F93AF93BF93EF93FF93E0916300C6
S1130660F0916400309709F00995FF91EF91BF91E3
S1130670AF919F918F917F916F915F914F913F9136
S11306802F910F900FBE0F901F90189540E064E0DB
S113069081E00E943D0240E065E081E00E943D026D
S11306A040E067E081E00E943D0241E066E081E0D5
S11306B00E943D028DB180648DB98DB18DB98DB12B
S11306C081608DB98EB18EB908958FEF8FB9779B04
S11306D0FECF8FB108951F920F920FB60F9211247F
S11306E02F933F934F935F936F937F938F939F9336
S11306F0AF93BF93EF93FF93E0916500F091660091
S1130700309709F00995FF91EF91BF91AF919F91B7
S11307108F917F916F915F914F913F912F910F90A6
S10F07200FBE0F901F901895F894FFCFA7
S9030000FC
