S00F000044494F5F6C43442E73726563E7
S11300000C942A000C94BC020C9447000C944700F6
S11300100C9447000C9447000C9447000C94470040
S11300200C9447000C9447000C9447000C94140360
S11300300C9447000C9447000C9447000C94470020
S11300400C94EB010C9447000C9447000C9447006B
S11300500C94470011241FBECFE5D8E0DEBFCDBF0E
S113006010E0A0E6B0E0EAEFF7E002C005900D92E0
S1130070A036B107D9F720E0A0E6B0E001C01D9298
S1130080AB36B207E1F70E94D3010C94FB030C9446
S1130090000041E060E081E00E944C0289EF90E0C2
S11300A00197F1F700C00000B49955C0B59955C047
S11300B0B69955C0B79955C040E060E081E00E9410
S11300C04C0241E061E081E00E944C0289EF90E043
S11300D00197F1F700C00000B49945C0B59945C037
S11300E0B69945C0B79945C040E061E081E00E94FF
S11300F04C0241E062E081E00E944C0289EF90E012
S11301000197F1F700C00000B49935C0B59935C026
S1130110B69935C0B79935C040E062E081E00E94ED
S11301204C0241E063E081E00E944C0289EF90E0E0
S11301300197F1F700C00000B49925C0B59925C016
S1130140B69925C0B79925C040E063E081E00E94DC
S11301504C028EE4089581E3089582E3089583E3D5
S1130160089581E4089584E3089585E3089586E37A
S1130170089582E4089587E3089588E3089589E360
S1130180089583E408958AE2089580E3089583E25C
S1130190089584E40895CF93C82F40E060E082E09E
S11301A00E944C0240E061E082E00E944C02C4FBE9
S11301B0442740F964E082E00E944C02C5FB4427D6
S11301C040F965E082E00E944C02C6FB442740F9F6
S11301D066E082E00E944C024C2F441F4427441FD7
S11301E067E082E00E944C0241E062E082E00E940B
S11301F04C0283EC99E00197F1F700C0000040E065
S113020062E082E00E944C0280916000882359F1F0
S11302104C2F417064E082E00E944C02C1FB4427F1
S113022040F965E082E00E944C02C2FB442740F999
S113023066E082E00E944C02C3FB442740F967E079
S113024082E00E944C0241E062E082E00E944C02A3
S113025083EC99E00197F1F700C0000040E062E010
S113026082E00E944C02CF91089561E082E00E94F6
S113027014022FE58AEE90E0215080409040E1F78F
S113028000C0000080E20E94CB0080E20E94CB000C
S113029080E80E94CB0083EC99E00197F1F700C05D
S11302A0000080E00E94CB0080EF0E94CB0083EC32
S11302B099E00197F1F700C0000080E00E94CB00B4
S11302C080E10E94CB0087E893E10197F1F700C039
S11302D0000081E0809360000895CF93C82F41E02F
S11302E060E082E00E944C0240E061E082E00E9413
S11302F04C02C4FB442740F964E082E00E944C02B3
S1130300C5FB442740F965E082E00E944C02C6FB2D
S1130310442740F966E082E00E944C024C2F441FBF
S11303204427441F67E082E00E944C0241E062E0FF
S113033082E00E944C0283EC99E00197F1F700C03F
S1130340000040E062E082E00E944C024C2F4170C9
S113035064E082E00E944C02C1FB442740F965E05E
S113036082E00E944C02C2FB442740F966E082E02E
S11303700E944C02C3FB442740F967E082E00E94DC
S11303804C0241E062E082E00E944C0283EC99E07E
S11303900197F1F700C0000040E062E082E00E94B3
S11303A04C02CF9108950E9401030E94350161E03F
S11303B083E00E9414020E9449008E3439F00E94A6
S11303C06D016FEF83E00E943C02F5CF60E083E0B3
S11303D00E943C02F0CF1F920F920FB60F9211248D
S11303E02F933F934F935F936F937F938F939F9339
S11303F0AF93BF93EF93FF93E0916100F09162009C
S1130400309709F00995FF91EF91BF91AF919F91BA
S11304108F917F916F915F914F913F912F910F90A9
S11304200FBE0F901F9018956130A1F4813049F0F0
S113043028F0823049F0833051F008958FEF8ABB61
S113044008958FEF87BB08958FEF84BB08958FEFD6
S113045081BB089561110FC0813041F028F08230D2
S113046039F0833039F008951ABA089517BA089507
S113047014BA089511BA0895813041F028F08230F9
S113048039F0833039F008956BBB089568BB089543
S113049065BB089562BB08954130A1F5813089F0B0
S11304A028F08230C9F0833011F108952BB381E034
S11304B090E002C0880F991F6A95E2F7822B8BBBEC
S11304C0089528B381E090E002C0880F991F6A95CF
S11304D0E2F7822B88BB089525B381E090E002C047
S11304E0880F991F6A95E2F7822B85BB089522B382
S11304F081E090E002C0880F991F6A95E2F7822B91
S113050082BB0895411137C0813091F028F08230C8
S1130510D9F0833029F108952BB381E090E002C033
S1130520880F991F6A95E2F7809582238BBB089503
S113053028B381E090E002C0880F991F6A95E2F722
S11305408095822388BB089525B381E090E002C0A2
S1130550880F991F6A95E2F78095822385BB0895D9
S113056022B381E090E002C0880F991F6A95E2F7F8
S11305708095822382BB08951F920F920FB60F922B
S113058011242F933F934F935F936F937F938F9394
S11305909F93AF93BF93EF93FF93E0916300F09128
S11305A06400309709F00995FF91EF91BF91AF91E5
S11305B09F918F917F916F915F914F913F912F9177
S11305C00F900FBE0F901F90189520E030E040E888
S11305D05FE3609167007091680080916900909179
S11305E06A000E943E0360936700709368008093E2
S11305F0690090936A000895909366008093650063
S1130600089512BE83B7877B83BF83B783BF89B73F
S11306108C7F89BF89B7816089BF89B789BF85EE1F
S113062092E00E94FC0208951F920F920FB60F925F
S113063011242F933F934F935F936F937F938F93E3
S11306409F93AF93BF93EF93FF93E0916500F09175
S11306506600309709F00995FF91EF91BF91AF9132
S11306609F918F917F916F915F914F913F912F91C6
S11306700F900FBE0F901F9018955058BB27AA27B4
S11306800E9455030C94C1030E94B30338F00E94E6
S1130690BA0320F039F49F3F19F426F40C94B00304
S11306A00EF4E095E7FB0C94AA03E92F0E94D20311
S11306B058F3BA17620773078407950720F079F493
S11306C0A6F50C94F4030EF4E0950B2EBA2FA02D8E
S11306D00B01B90190010C01CA01A0011124FF27EB
S11306E0591B99F0593F50F4503E68F11A16F040E6
S11306F0A22F232F342F4427585FF3CF46953795E5
S11307002795A795F0405395C9F77EF41F16BA0BA9
S1130710620B730B840BBAF09150A1F0FF0FBB1F57
S1130720661F771F881FC2F70EC0BA0F621F731FA0
S1130730841F48F4879577956795B795F7959E3FFD
S113074008F0B0CF9395880F08F09927EE0F97958E
S11307508795089597F99F6780E870E060E00895B1
S11307609FEF80EC089500240A94161617061806C5
S11307700906089500240A941216130614060506A1
S11307800895092E0394000C11F4882352F0BB0F32
S113079040F4BF2B11F460FF04C06F5F7F4F8F4F95
S11307A09F4F089557FD9058440F551F59F05F3FD0
S11307B071F04795880F97FB991F61F09F3F79F07F
S11307C087950895121613061406551FF2CF469501
S11307D0F1DF08C0161617061806991FF1CF869583
S11307E07105610508940895E894BB276627772767
S10D07F0CB0197F90895F894FFCFA8
S9030000FC
