:100000000C942A000C94F4030C9447000C944700C1
:100010000C9447000C9447000C9447000C94470044
:100020000C9447000C9447000C9447000C94760401
:100030000C9447000C9447000C9447000C94470024
:100040000C9491020C9447000C9447000C944700C8
:100050000C94470011241FBECFE5D8E0DEBFCDBF12
:1000600010E0A0E6B0E0EAE8FBE002C005900D92E7
:10007000AA37B107D9F720E0AAE7B0E001C01D9286
:10008000A438B207E1F70E948E020C94C3050C94C9
:10009000000081E080937A0008950E945C010E9434
:1000A00030040E944A020E94880261E080E00E94BF
:1000B000BA0261E081E00E94BA0289E490E00E9405
:1000C000EF030E94C2030E94EB0380917A00882311
:1000D00009F464C040E060E080E690E00E9407021E
:1000E00040E060E08AE690E00E94070240E060E0C5
:1000F00080E00E94520341E061E080E00E945203F0
:1001000040E062E080E00E945203C5E01AC041E096
:1001100061E080E00E9452038C2F0E94690260E03F
:1001200070E080E89FE30E94430440E061E080E0EB
:100130000E9452036DEC7CEC8CEC9DE30E94430426
:10014000C150C111E4CF40E060E080E690E00E9441
:10015000070240E060E085E790E00E94070240E08F
:1001600060E080E00E94520340E061E080E00E9495
:10017000520341E062E080E00E945203C5E00AC001
:100180008C2F0E94690260E070E080E89FE30E948B
:100190004304C150C111F4CF10927A0041E060E0F5
:1001A00080E00E94520340E061E080E00E94520340
:1001B00040E062E080E00E94520340E060E080E7BF
:1001C00090E00E940702C9E00AC08C2F0E946902D9
:1001D00060E070E080E89FE30E944304C150C111D9
:1001E000F4CF73CFCF93C82F40E060E082E00E944D
:1001F000520340E061E082E00E945203C4FB4427C6
:1002000040F964E082E00E945203C5FB442740F9B4
:1002100065E082E00E945203C6FB442740F966E095
:1002200082E00E9452034C2F441F4427441F67E082
:1002300082E00E94520341E062E082E00E945203A9
:1002400083EC99E00197F1F700C0000040E062E024
:1002500082E00E94520380917B00882359F14C2F49
:10026000417064E082E00E945203C1FB442740F9E0
:1002700065E082E00E945203C2FB442740F966E039
:1002800082E00E945203C3FB442740F967E082E00A
:100290000E94520341E062E082E00E94520383EC3C
:1002A00099E00197F1F700C0000040E062E082E0D1
:1002B0000E945203CF91089561E082E00E94BA0249
:1002C0002FE58AEE90E0215080409040E1F700C099
:1002D000000080E20E94F20080E20E94F20080E8CA
:1002E0000E94F20083EC99E00197F1F700C0000052
:1002F00080E00E94F20080EF0E94F20083EC99E01F
:100300000197F1F700C0000080E00E94F20080E158
:100310000E94F20087E893E10197F1F700C0000026
:1003200081E080937B000895CF93C82F41E060E087
:1003300082E00E94520340E061E082E00E945203AA
:10034000C4FB442740F964E082E00E945203C5FBED
:10035000442740F965E082E00E945203C6FB44272F
:1003600040F966E082E00E9452034C2F441F44276C
:10037000441F67E082E00E94520341E062E082E0B5
:100380000E94520383EC99E00197F1F700C000004E
:1003900040E062E082E00E9452034C2F417064E032
:1003A00082E00E945203C1FB442740F965E082E0ED
:1003B0000E945203C2FB442740F966E082E00E949B
:1003C0005203C3FB442740F967E082E00E945203D6
:1003D00041E062E082E00E94520383EC99E00197E1
:1003E000F1F700C0000040E062E082E00E945203AA
:1003F000CF910895823050F4603140F490E4899FA9
:10040000600D1124862F80680E94F2000895EF92FB
:10041000FF920F931F93CF93DF938C01D62FF42E6F
:10042000642F8D2F0E94FA01E12CC0E01AC0203108
:10043000310524F40E949401CF5F13C020313105AF
:1004400039F460E081E00E94FA01EE24E39409C0EF
:100450002032310534F491E0E91203C00E94940186
:10046000CF5FF801EC0FF11D8081882361F02C2F04
:1004700030E090E1D99F200D311D11242F0D311D49
:1004800020323105A4F2DF91CF911F910F91FF909F
:10049000EF90089541E060E081E00E94E20241E0D7
:1004A00061E081E00E94E20241E062E081E00E94BE
:1004B000E20241E063E081E00E94E20241E064E0A8
:1004C00081E00E94E20241E061E081E00E94E202FC
:1004D0000895CF93C82F482F417060E081E00E94BB
:1004E0005203C1FB442740F961E081E00E945203BE
:1004F000C2FB442740F962E081E00E945203C3FB43
:10050000442740F963E081E00E945203CF910895AF
:1005100041E064E081E00E94520308950E944D0092
:10052000FFCF1F920F920FB60F9211242F933F937C
:100530004F935F936F937F938F939F93AF93BF93EB
:10054000EF93FF93E0917C00F0917D00309709F0EC
:100550000995FF91EF91BF91AF919F918F917F91FD
:100560006F915F914F913F912F910F900FBE0F9020
:100570001F9018956130A1F4813049F028F0823045
:1005800049F0833051F008958FEF8ABB08958FEFC3
:1005900087BB08958FEF84BB08958FEF81BB0895CB
:1005A00061110FC0813041F028F0823039F0833082
:1005B00039F008951ABA089517BA089514BA08952B
:1005C00011BA0895411138C0813091F028F082307D
:1005D000D9F0833029F108952AB381E090E002C078
:1005E000880F991F6A95E2F7809582238ABB089548
:1005F00027B381E090E002C0880F991F6A95E2F767
:100600008095822387BB089524B381E090E002C0E7
:10061000880F991F6A95E2F78095822384BB08951D
:1006200021B381E090E002C0880F991F6A95E2F73C
:100630008095822381BB0895413099F5813089F0FE
:1006400028F08230C9F0833011F108952AB381E097
:1006500090E002C0880F991F6A95E2F7822B8ABB4F
:10066000089527B381E090E002C0880F991F6A9532
:10067000E2F7822B87BB089524B381E090E002C0AB
:10068000880F991F6A95E2F7822B84BB089521B3E6
:1006900081E090E002C0880F991F6A95E2F7822BF3
:1006A00081BB08954130A1F5813089F028F0823076
:1006B000C9F0833011F108952BB381E090E002C0BE
:1006C000880F991F6A95E2F7822B8BBB089528B398
:1006D00081E090E002C0880F991F6A95E2F7822BB3
:1006E00088BB089525B381E090E002C0880F991F70
:1006F0006A95E2F7822B85BB089522B381E090E0F2
:1007000002C0880F991F6A95E2F7822B82BB089579
:10071000411137C0813091F028F08230D9F0833018
:1007200029F108952BB381E090E002C0880F991F52
:100730006A95E2F7809582238BBB089528B381E008
:1007400090E002C0880F991F6A95E2F78095822396
:1007500088BB089525B381E090E002C0880F991FFF
:100760006A95E2F78095822385BB089522B381E0E4
:1007700090E002C0880F991F6A95E2F78095822366
:1007800082BB089585B78E7F85BF85B78D7F85BF76
:1007900085B78B7F85BF85B7877F85BF84B78F7B04
:1007A00084BF85B7826085BF85B785BF84B784BFA6
:1007B0008BB78F7B8BBF8BB78F778BBF8BB78F7DC3
:1007C0008BBF8AB780628ABF8AB780648ABF8AB7C4
:1007D00080688ABF08958BB780648BBF089590931B
:1007E0007F0080937E0008951F920F920FB60F92A4
:1007F00011242F933F934F935F936F937F938F9326
:100800009F93AF93BF93EF93FF93E0917E00F0919E
:100810007F00309709F00995FF91EF91BF91AF915B
:100820009F918F917F916F915F914F913F912F9108
:100830000F900FBE0F901F9018958FB780688FBFD5
:100840000895809182009091830001969093830097
:100850008093820008959093810080938000089592
:1008600012BE83B78F7983BF83B783BF89B78C7F6D
:1008700089BF89B7816089BF89B789BF81E294E068
:100880000E942B040895CF92DF92EF92FF926B01AA
:100890007C010E941D0483B7816483BF20E030E0A7
:1008A0004AEF54E4C701B6010E9456056B017C0172
:1008B0006091820070918300072E000C880B990BC9
:1008C0000E94A1049B01AC01C701B6010E94510521
:1008D000181674F3109283001092820083B7887503
:1008E00083BFFF90EF90DF90CF9008951F920F92FB
:1008F0000FB60F9211242F933F934F935F936F93F3
:100900007F938F939F93AF93BF93EF93FF93E09168
:100910008000F0918100309709F00995FF91EF91E7
:10092000BF91AF919F918F917F916F915F914F9107
:100930003F912F910F900FBE0F901F901895E89444
:1009400009C097FB3EF490958095709561957F4F17
:100950008F4F9F4F9923A9F0F92F96E9BB279395C5
:10096000F695879577956795B795F111F8CFFAF4D5
:10097000BB0F11F460FF1BC06F5F7F4F8F4F9F4F06
:1009800016C0882311F096E911C0772321F09EE864
:10099000872F762F05C0662371F096E8862F70E0CA
:1009A00060E02AF09A95660F771F881FDAF7880FA4
:1009B0009695879597F90895990F0008550FAA0BFA
:1009C000E0E8FEEF16161706E807F907C0F0121662
:1009D0001306E407F50798F0621B730B840B950B65
:1009E00039F40A2661F0232B242B252B21F40895BA
:1009F0000A2609F4A140A6958FEF811D811D089557
:100A000097F99F6780E870E060E008959FEF80ECC1
:100A1000089500240A941616170618060906089564
:100A200000240A9412161306140605060895092ECA
:100A30000394000C11F4882352F0BB0F40F4BF2B39
:100A400011F460FF04C06F5F7F4F8F4F9F4F089579
:100A500057FD9058440F551F59F05F3F71F047956F
:100A6000880F97FB991F61F09F3F79F08795089554
:100A7000121613061406551FF2CF4695F1DF08C073
:100A8000161617061806991FF1CF86957105610590
:100A900008940895E894BB2766277727CB0197F938
:100AA00008950E94DC0408F48FEF08950E94690500
:100AB0000C9417050E94090538F00E94100520F0DB
:100AC000952311F00C9400050C94060511240C9448
:100AD0004B050E94280570F3959FC1F3950F50E0D8
:100AE000551F629FF001729FBB27F00DB11D639FE0
:100AF000AA27F00DB11DAA1F649F6627B00DA11D86
:100B0000661F829F2227B00DA11D621F739FB00D2B
:100B1000A11D621F839FA00D611D221F749F33279B
:100B2000A00D611D231F849F600D211D822F762F34
:100B30006A2F11249F5750409AF0F1F088234AF011
:100B4000EE0FFF1FBB1F661F771F881F915050407D
:100B5000A9F79E3F510580F00C9400050C944B05BD
:100B60005F3FE4F3983ED4F3869577956795B79504
:100B7000F795E7959F5FC1F7FE2B880F911D96951E
:0A0B8000879597F90895F894FFCFC8
:100B8A0020202020202020202000524541445900C6
:0A0B9A00444F4E54205041535300C5
:00000001FF
