S00F000044494F5F6C43442E73726563E7
S11300000C942A000C9443040C9447000C9447006D
S11300100C9447000C9447000C9447000C94470040
S11300200C9447000C9447000C9447000C94C504AE
S11300300C9447000C9447000C9447000C94470020
S11300400C94B2020C9447000C9447000C944700A3
S11300500C94470011241FBECFE5D8E0DEBFCDBF0E
S113006010E0A0E6B0E0E8E2FCE002C005900D92EA
S1130070A036B107D9F720E0A0E6B0E001C01D9298
S1130080A936B207E1F70E94AF020C9412060C9451
S1130090000081E0809360000895CF93DF93C5E072
S11300A0D0E028C041E060E080E00E94730340E0BB
S11300B061E080E00E94730340E062E080E00E941F
S11300C073038C2F0E948A0240E060E081E00E946A
S11300D0730340E061E081E00E94730341E062E069
S11300E081E00E947303219760E070E080E89FE361
S11300F00E94920480916000811145C01C161D0667
S11301008CF2C5E0D0E041C040E060E080E00E94B5
S1130110730341E061E080E00E94730340E062E029
S113012080E00E94730340E060E081E00E9473037A
S113013041E061E081E00E94730340E062E081E01D
S11301400E9473036DEC7CEC8CEC9DE30E949204A2
S113015040E061E080E00E94730340E061E081E000
S11301600E9473036DEC7CEC8CEC9DE30E94920482
S11301708C2F0E948A0260E070E080E89FE30E9476
S11301809204219702C0C5E0D0E080916000811103
S113019030C01C161D060CF4B7CFC5E0D0E02BC050
S11301A040E060E080E00E94730340E061E080E0B2
S11301B00E94730341E062E080E00E94730341E027
S11301C060E081E00E94730340E061E081E00E940E
S11301D0730340E062E081E00E9473038C2F0E946D
S11301E08A0260E070E080E89FE30E949204219715
S11301F002C0C5E0D0E080916000811103C01C16EC
S11302001D0674F2DF91CF910895CF93DF9360E0E0
S113021080E00E94E303811140C080C040E060E0C0
S113022080E00E94730341E061E080E00E94730378
S113023040E062E080E00E94730340E060E081E01F
S11302400E94730341E061E081E00E94730340E097
S113025062E081E00E9473036DEC7CEC8CEC9DE326
S11302600E94920440E061E080E00E94730340E059
S113027061E081E00E9473036DEC7CEC8CEC9DE307
S11302800E9492048C2F0E948A0260E070E080E851
S11302909FE30E949204219702C0C5E0D0E08091C0
S11302A06000882381F11C161D060CF4B7CFC5E04D
S11302B0D0E02BC040E060E080E00E94730340E0A7
S11302C061E080E00E94730341E062E080E00E940C
S11302D0730341E060E081E00E94730340E061E069
S11302E081E00E94730340E062E081E00E947303B6
S11302F08C2F0E948A0260E070E080E89FE30E94F5
S11303009204219702C0C5E0D0E080916000882368
S113031009F4BCC01C161D066CF2B8C062E080E093
S11303200E94E30381112CC0C5E0D0E072C040E01C
S113033060E080E00E94730340E061E080E00E949E
S1130340730341E062E080E00E94730341E060E0F7
S113035081E00E94730340E061E081E00E94730346
S113036040E062E081E00E9473038C2F0E948A02C5
S113037060E070E080E89FE30E949204219702C04D
S1130380C5E0D0E080916000882309F47FC01C168A
S11303901D066CF27BC040E060E080E00E947303C5
S11303A041E061E080E00E94730340E062E080E0AD
S11303B00E94730340E060E081E00E94730341E027
S11303C061E081E00E94730340E062E081E00E940A
S11303D073036DEC7CEC8CEC9DE30E94920440E092
S11303E061E080E00E94730340E061E081E00E94EC
S11303F073036DEC7CEC8CEC9DE30E9492048C2FD7
S11304000E948A0260E070E080E89FE30E94920408
S1130410219780916000882381F11C161D060CF43D
S1130420BACFC5E0D0E02BC040E060E080E00E949D
S1130430730340E061E080E00E94730341E062E006
S113044080E00E94730341E060E081E00E94730356
S113045040E061E081E00E94730340E062E081E0FB
S11304600E9473038C2F0E948A0260E070E080E88F
S11304709FE30E949204219702C0C5E0D0E08091DE
S11304806000882319F01C161D0674F21092600097
S1130490DF91CF9108950E947F040E946B020E9415
S11304A0A90261E080E00E94DB0261E081E00E9439
S11304B0DB0289E490E00E943E040E9411040E9441
S11304C03A0480916000811103C00E944D00F9CF6D
S11304D00E940501F6CF41E060E082E00E94030340
S11304E041E061E082E00E94030341E062E082E0D7
S11304F00E94030341E063E082E00E94030341E0C1
S113050064E082E00E94030341E065E082E00E942F
S113051003030895CF93C82F482F417060E082E011
S11305200E947303C1FB442740F961E082E00E940A
S11305307303C2FB442740F962E082E00E94730324
S1130540C3FB442740F963E082E00E947303CF9128
S1130550089541E064E082E00E94730308950E94DC
S11305604B02FFCF1F920F920FB60F9211242F93BD
S11305703F934F935F936F937F938F939F93AF9327
S1130580BF93EF93FF93E0916100F0916200309785
S113059009F00995FF91EF91BF91AF919F918F91D0
S11305A07F916F915F914F913F912F910F900FBE6B
S11305B00F901F9018956130A1F4813049F028F014
S11305C0823049F0833051F008958FEF8ABB08954B
S11305D08FEF87BB08958FEF84BB08958FEF81BBA6
S11305E0089561110FC0813041F028F0823039F054
S11305F0833039F008951ABA089517BA089514BAD1
S1130600089511BA0895411138C0813091F028F04D
S11306108230D9F0833029F108952AB381E090E043
S113062002C0880F991F6A95E2F7809582238ABBDE
S1130630089527B381E090E002C0880F991F6A955E
S1130640E2F78095822387BB089524B381E090E08C
S113065002C0880F991F6A95E2F78095822384BBB4
S1130660089521B381E090E002C0880F991F6A9534
S1130670E2F78095822381BB0895413099F581305A
S113068089F028F08230C9F0833011F108952AB33B
S113069081E090E002C0880F991F6A95E2F7822BEF
S11306A08ABB089527B381E090E002C0880F991FA8
S11306B06A95E2F7822B87BB089524B381E090E02A
S11306C002C0880F991F6A95E2F7822B84BB0895B4
S11306D021B381E090E002C0880F991F6A95E2F788
S11306E0822B81BB08954130A1F5813089F028F037
S11306F08230C9F0833011F108952BB381E090E08A
S113070002C0880F991F6A95E2F7822B8BBB08956C
S113071028B381E090E002C0880F991F6A95E2F740
S1130720822B88BB089525B381E090E002C0880F36
S1130730991F6A95E2F7822B85BB089522B381E065
S113074090E002C0880F991F6A95E2F7822B82BB62
S11307500895411137C0813091F028F08230D9F0EA
S1130760833029F108952BB381E090E002C0880F13
S1130770991F6A95E2F7809582238BBB089528B36D
S113078081E090E002C0880F991F6A95E2F7809596
S1130790822388BB089525B381E090E002C0880FCE
S11307A0991F6A95E2F78095822385BB089522B349
S11307B081E090E002C0880F991F6A95E2F7809566
S11307C0822382BB0895813079F028F08230A9F029
S11307D08330E1F024C089B390E002C095958795F9
S11307E06A95E2F78170089586B390E002C095950A
S11307F087956A95E2F78170089583B390E002C00B
S1130800959587956A95E2F78170089589B390E08C
S113081002C0959587956A95E2F78170089580E006
S1130820089585B78E7F85BF85B78D7F85BF85B7D2
S11308308B7F85BF85B7877F85BF84B78F7B84BF58
S113084085B7826085BF85B785BF84B784BF8BB702
S11308508F7B8BBF8BB78F778BBF8BB78F7D8BBF16
S11308608AB780628ABF8AB780648ABF8AB7806881
S11308708ABF08958BB780648BBF089590936400FA
S11308808093630008951F920F920FB60F92112464
S11308902F933F934F935F936F937F938F939F9384
S11308A0AF93BF93EF93FF93E0916300F0916400E3
S11308B0309709F00995FF91EF91BF91AF919F9106
S11308C08F917F916F915F914F913F912F910F90F5
S11308D00FBE0F901F9018958FB780688FBF089533
S11308E080916700909168000196909368008093CE
S11308F0670008959093660080936500089512BE82
S113090083B78F7983BF83B783BF89B78C7F89BF50
S113091089B7816089BF89B789BF80E794E00E9465
S11309207A040895CF92DF92EF92FF926B017C01DB
S11309300E946C0483B7816483BF20E030E04AEFF7
S113094054E4C701B6010E94A5056B017C016091C6
S1130950670070916800072E000C880B990B0E94A9
S1130960F0049B01AC01C701B6010E94A005181652
S113097074F3109268001092670083B7887583BF80
S1130980FF90EF90DF90CF9008951F920F920FB6D3
S11309900F9211242F933F934F935F936F937F9301
S11309A08F939F93AF93BF93EF93FF93E091650071
S11309B0F0916600309709F00995FF91EF91BF918E
S11309C0AF919F918F917F916F915F914F913F91E3
S11309D02F910F900FBE0F901F901895E89409C0A7
S11309E097FB3EF490958095709561957F4F8F4F5E
S11309F09F4F9923A9F0F92F96E9BB279395F69574
S1130A00879577956795B795F111F8CFFAF4BB0FF1
S1130A1011F460FF1BC06F5F7F4F8F4F9F4F16C055
S1130A20882311F096E911C0772321F09EE8872FDF
S1130A30762F05C0662371F096E8862F70E060E09B
S1130A402AF09A95660F771F881FDAF7880F969514
S1130A50879597F90895990F0008550FAA0BE0E8B8
S1130A60FEEF16161706E807F907C0F0121613066C
S1130A70E407F50798F0621B730B840B950B39F4AC
S1130A800A2661F0232B242B252B21F408950A2612
S1130A9009F4A140A6958FEF811D811D089597F952
S1130AA09F6780E870E060E008959FEF80EC089510
S1130AB000240A9416161706180609060895002439
S1130AC00A9412161306140605060895092E0394B3
S1130AD0000C11F4882352F0BB0F40F4BF2B11F427
S1130AE060FF04C06F5F7F4F8F4F9F4F089557FD86
S1130AF09058440F551F59F05F3F71F04795880F88
S1130B0097FB991F61F09F3F79F08795089512161E
S1130B1013061406551FF2CF4695F1DF08C01616CA
S1130B2017061806991FF1CF86957105610508947B
S1130B300895E894BB2766277727CB0197F9089592
S1130B400E942B0508F48FEF08950E94B8050C94B9
S1130B5066050E94580538F00E945F0520F0952331
S1130B6011F00C944F050C94550511240C949A051E
S1130B700E94770570F3959FC1F3950F50E0551FC0
S1130B80629FF001729FBB27F00DB11D639FAA27DE
S1130B90F00DB11DAA1F649F6627B00DA11D661F2D
S1130BA0829F2227B00DA11D621F739FB00DA11D4E
S1130BB0621F839FA00D611D221F749F3327A00D08
S1130BC0611D231F849F600D211D822F762F6A2FA4
S1130BD011249F5750409AF0F1F088234AF0EE0F09
S1130BE0FF1FBB1F661F771F881F91505040A9F736
S1130BF09E3F510580F00C944F050C949A055F3F7D
S1130C00E4F3983ED4F3869577956795B795F79571
S1130C10E7959F5FC1F7FE2B880F911D96958795E9
S10B0C2097F90895F894FFCF41
S9030000FC
