:100000000C942A000C9498010C9447000C9447001F
:100010000C9447000C9447000C9447000C94470044
:100020000C9447000C9447000C9447000C94510228
:100030000C9447000C9447000C9447000C94470024
:100040000C9467000C9447000C9447000C944700F4
:100050000C94470011241FBECFE5D8E0DEBFCDBF12
:1000600010E0A0E6B0E0E0E4F7E002C005900D92F9
:10007000A036B107D9F720E0A0E6B0E001C01D929C
:10008000A836B207E1F70E9464000C949E030C941A
:1000900000000E940B020E94C50161E080E00E9406
:1000A000900080E00E94EA0160E070E080EA90E465
:1000B0000E941E0280EF0E94EA0160E070E080EA88
:1000C00090E40E941E02EDCF0E944900FFCF1F92D4
:1000D0000F920FB60F9211242F933F934F935F937C
:1000E0006F937F938F939F93AF93BF93EF93FF9300
:1000F000E0916000F0916100309709F00995FF915F
:10010000EF91BF91AF919F918F917F916F915F918F
:100110004F913F912F910F900FBE0F901F90189508
:100120006130A1F4813049F028F0823049F0833009
:1001300051F008958FEF8ABB08958FEF87BB089524
:100140008FEF84BB08958FEF81BB089561110FC0BD
:10015000813041F028F0823039F0833039F0089551
:100160001ABA089517BA089514BA089511BA0895DD
:10017000411138C0813091F028F08230D9F08330BD
:1001800029F108952AB381E090E002C0880F991FF9
:100190006A95E2F7809582238ABB089527B381E0B0
:1001A00090E002C0880F991F6A95E2F7809582233C
:1001B00087BB089524B381E090E002C0880F991FA7
:1001C0006A95E2F78095822384BB089521B381E08C
:1001D00090E002C0880F991F6A95E2F7809582230C
:1001E00081BB0895413099F5813089F028F0823043
:1001F000C9F0833011F108952AB381E090E002C084
:10020000880F991F6A95E2F7822B8ABB089527B35E
:1002100081E090E002C0880F991F6A95E2F7822B77
:1002200087BB089524B381E090E002C0880F991F36
:100230006A95E2F7822B84BB089521B381E090E0B8
:1002400002C0880F991F6A95E2F7822B81BB08953F
:100250004130A1F5813089F028F08230C9F0833037
:1002600011F108952BB381E090E002C0880F991F2F
:100270006A95E2F7822B8BBB089528B381E090E06A
:1002800002C0880F991F6A95E2F7822B88BB0895F8
:1002900025B381E090E002C0880F991F6A95E2F7CC
:1002A000822B85BB089522B381E090E002C0880FC5
:1002B000991F6A95E2F7822B82BB0895411137C0DE
:1002C000813091F028F08230D9F0833029F10895FF
:1002D0002BB381E090E002C0880F991F6A95E2F786
:1002E000809582238BBB089528B381E090E002C003
:1002F000880F991F6A95E2F78095822388BB08953D
:1003000025B381E090E002C0880F991F6A95E2F75B
:100310008095822385BB089522B381E090E002C0DE
:10032000880F991F6A95E2F78095822382BB089512
:100330001F920F920FB60F9211242F933F934F935A
:100340005F936F937F938F939F93AF93BF93EF933D
:10035000FF93E0916200F0916300309709F00995F6
:10036000FF91EF91BF91AF919F918F917F916F918D
:100370005F914F913F912F910F900FBE0F901F9063
:1003800018958FB780688FBF089541E064E081E0E1
:100390000E94B80041E065E081E00E94B80041E0C1
:1003A00067E081E00E94B80040E066E081E00E94E2
:1003B000B8008DB180648DB941E064E081E00E94B5
:1003C00028018DB180618DB98DB181608DB98EB1FB
:1003D0008EB90895CF93C82F40E064E081E00E9479
:1003E0002801CFB9779BFECF8FB141E064E081E077
:1003F0000E942801CF910895809166009091670036
:10040000019690936700809366000895909365002D
:1004100080936400089512BE83B7877B83BF83B740
:1004200083BF89B78C7F89BF89B7816089BF89B74E
:1004300089BF8CEF91E00E9406020895CF92DF926F
:10044000EF92FF926B017C010E94C10183B785602E
:1004500083BF20E030E040E450E4C701B6010E94D1
:1004600031036B017C016091660070916700072E7B
:10047000000C880B990B0E947C029B01AC01C70108
:10048000B6010E942C03181674F3109267001092A4
:10049000660083B7887F83BFFF90EF90DF90CF9097
:1004A00008951F920F920FB60F9211242F933F932E
:1004B0004F935F936F937F938F939F93AF93BF936C
:1004C000EF93FF93E0916400F0916500309709F09D
:1004D0000995FF91EF91BF91AF919F918F917F917E
:1004E0006F915F914F913F912F910F900FBE0F90A1
:1004F0001F901895E89409C097FB3EF4909580955D
:10050000709561957F4F8F4F9F4F9923A9F0F92FD9
:1005100096E9BB279395F695879577956795B79557
:10052000F111F8CFFAF4BB0F11F460FF1BC06F5F3D
:100530007F4F8F4F9F4F16C0882311F096E911C04F
:10054000772321F09EE8872F762F05C0662371F070
:1005500096E8862F70E060E02AF09A95660F771F84
:10056000881FDAF7880F9695879597F90895990F60
:100570000008550FAA0BE0E8FEEF16161706E8076D
:10058000F907C0F012161306E407F50798F0621B8E
:10059000730B840B950B39F40A2661F0232B242B63
:1005A000252B21F408950A2609F4A140A6958FEF82
:1005B000811D811D089597F99F6780E870E060E0D4
:1005C00008959FEF80EC089500240A9416161706EC
:1005D00018060906089500240A9412161306140634
:1005E00005060895092E0394000C11F4882352F097
:1005F000BB0F40F4BF2B11F460FF04C06F5F7F4F4F
:100600008F4F9F4F089557FD9058440F551F59F035
:100610005F3F71F04795880F97FB991F61F09F3FEF
:1006200079F087950895121613061406551FF2CF18
:100630004695F1DF08C0161617061806991FF1CF68
:1006400086957105610508940895E894BB2766278F
:100650007727CB0197F908950E94B70208F48FEF2E
:1006600008950E9444030C94F2020E94E40238F0C0
:100670000E94EB0220F0952311F00C94DB020C9405
:10068000E10211240C9426030E94030370F3959F4A
:10069000C1F3950F50E0551F629FF001729FBB2779
:1006A000F00DB11D639FAA27F00DB11DAA1F649F15
:1006B0006627B00DA11D661F829F2227B00DA11DC8
:1006C000621F739FB00DA11D621F839FA00D611D4E
:1006D000221F749F3327A00D611D231F849F600D6F
:1006E000211D822F762F6A2F11249F5750409AF098
:1006F000F1F088234AF0EE0FFF1FBB1F661F771F24
:10070000881F91505040A9F79E3F510580F00C94EE
:10071000DB020C9426035F3FE4F3983ED4F3869506
:1007200077956795B795F795E7959F5FC1F7FE2B8E
:10073000880F911D9695879597F90895F894FFCFA6
:00000001FF
