S00F000044494F5F6C43442E73726563E7
S11300000C942A000C942B020C9447000C94470087
S11300100C9447000C9447000C9447000C94470040
S11300200C9447000C9447000C9447000C947902FC
S11300300C9447000C9447000C9447000C94470020
S11300400C94FA000C9447000C9447000C9447005D
S11300500C94470011241FBECFE5D8E0DEBFCDBF0E
S113006010E0A0E6B0E0E8E4F5E002C005900D92EF
S1130070A036B107D9F720E0A0E6B0E001C01D9298
S1130080A636B207E1F70E94DD000C94A2020C949C
S113009000000E94E20061E083E00E94230140E04E
S11300A060E080E00E944B0161E082E00E94230155
S11300B00E9454020E947302833091F128F481302B
S11300C059F08230E9F0F6CF853009F44FC0D8F109
S11300D0863009F45EC0EECF0E9473028E3431F490
S11300E041E067E083E00E94BB0107C0863429F445
S11300F040E067E083E00E94BB010E947302DACF14
S11301000E9473028E3431F441E066E083E00E9481
S1130110BB01D0CF40E066E083E00E94BB01CACFC0
S11301200E9473028E3431F441E065E083E00E9462
S1130130BB01C0CF863409F0BDCF40E065E083E069
S11301400E94BB01B7CF0E9473028E3431F441E0A8
S113015064E083E00E94BB01ADCF863409F0AACFEE
S113016040E064E083E00E94BB01A4CF0E947302DC
S11301708E3431F441E063E083E00E94BB019ACF06
S1130180863409F097CF40E063E083E00E94BB012E
S113019091CF0E9473020E9473028E3431F441E0C5
S11301A062E083E00E94BB0105C040E062E083E0BE
S11301B00E94BB010E9473027DCF0E94490080E02F
S11301C090E0089587B18F7387B987B1806487B948
S11301D086B1806286B980B78F7180BF80B780BFD7
S11301E087B18F7D87B986B1806186B986B1806811
S11301F086B908951F920F920FB60F9211242F9370
S11302003F934F935F936F937F938F939F93AF939A
S1130210BF93EF93FF93E0916000F09161003097FA
S113022009F00995FF91EF91BF91AF919F918F9143
S11302307F916F915F914F913F912F910F900FBEDE
S11302400F901F9018956130A1F4813049F028F087
S1130250823049F0833051F008958FEF8ABB0895BE
S11302608FEF87BB08958FEF84BB08958FEF81BB19
S1130270089561110FC0813041F028F0823039F0C7
S1130280833039F008951ABA089517BA089514BA44
S1130290089511BA0895411138C0813091F028F0C1
S11302A08230D9F0833029F108952AB381E090E0B7
S11302B002C0880F991F6A95E2F7809582238ABB52
S11302C0089527B381E090E002C0880F991F6A95D2
S11302D0E2F78095822387BB089524B381E090E000
S11302E002C0880F991F6A95E2F78095822384BB28
S11302F0089521B381E090E002C0880F991F6A95A8
S1130300E2F78095822381BB0895413099F58130CD
S113031089F028F08230C9F0833011F108952AB3AE
S113032081E090E002C0880F991F6A95E2F7822B62
S11303308ABB089527B381E090E002C0880F991F1B
S11303406A95E2F7822B87BB089524B381E090E09D
S113035002C0880F991F6A95E2F7822B84BB089527
S113036021B381E090E002C0880F991F6A95E2F7FB
S1130370822B81BB08954130A1F5813089F028F0AA
S11303808230C9F0833011F108952BB381E090E0FD
S113039002C0880F991F6A95E2F7822B8BBB0895E0
S11303A028B381E090E002C0880F991F6A95E2F7B4
S11303B0822B88BB089525B381E090E002C0880FAA
S11303C0991F6A95E2F7822B85BB089522B381E0D9
S11303D090E002C0880F991F6A95E2F7822B82BBD6
S11303E00895411137C0813091F028F08230D9F05E
S11303F0833029F108952BB381E090E002C0880F87
S1130400991F6A95E2F7809582238BBB089528B3E0
S113041081E090E002C0880F991F6A95E2F7809509
S1130420822388BB089525B381E090E002C0880F41
S1130430991F6A95E2F78095822385BB089522B3BC
S113044081E090E002C0880F991F6A95E2F78095D9
S1130450822382BB08951F920F920FB60F9211242C
S11304602F933F934F935F936F937F938F939F93B8
S1130470AF93BF93EF93FF93E0916200F091630019
S1130480309709F00995FF91EF91BF91AF919F913A
S11304908F917F916F915F914F913F912F910F9029
S11304A00FBE0F901F90189540E064E081E00E9419
S11304B04B0140E065E081E00E944B0140E067E0D1
S11304C081E00E944B0141E066E081E00E944B0123
S11304D08DB180648DB98DB18DB98DB181608DB9C7
S11304E08EB18EB908958FEF8FB9779BFECF8FB100
S11304F008951F920F920FB60F9211242F933F93DA
S11305004F935F936F937F938F939F93AF93BF9317
S1130510EF93FF93E0916400F0916500309709F048
S11305200995FF91EF91BF91AF919F918F917F9129
S11305306F915F914F913F912F910F900FBE0F904C
S10B05401F901895F894FFCFF9
S9030000FC
