:100000000C942A000C9447000C9447000C94470071
:100010000C9447000C9447000C9447000C94470044
:100020000C9447000C9447000C9447000C94470034
:100030000C9447000C9447000C9447000C94470024
:100040000C9447000C9447000C9447000C94470014
:100050000C94470011241FBECFE5D8E0DEBFCDBF12
:1000600010E0A0E6B0E0ECEFF6E002C005900D92E3
:10007000AA36B107D9F720E0AAE6B0E001C01D9288
:10008000AB36B207E1F70E94E7010C947C030C94B5
:100090000000CF93DF93CDB7DEB72A970FB6F89461
:1000A000DEBF0FBECDBF0E94F50040E061E080E002
:1000B0000E94390240E062E080E00E9439020E9422
:1000C000EA0181E00E9402020E940C028C0162E0BF
:1000D00080E00E941903811112C041E063E00E9498
:1000E000A9024AE0BE016F5F7F4FC8010E9447032B
:1000F00040E060E0CE0101960E94A401E2CF40E022
:1001000063E080E00E94A90240E060E080E690E0C9
:100110000E94A401D6CFCF93C82F40E061E081E0D8
:100120000E94A90240E062E081E00E94A902C4FBB3
:10013000442740F964E080E00E94A902C5FB4427FF
:1001400040F965E080E00E94A902C6FB442740F91F
:1001500066E080E00E94A9024C2F441F4427441F00
:1001600067E080E00E94A90241E063E081E00E9434
:10017000A90283EC99E00197F1F700C0000040E08C
:1001800063E081E00E94A90280916A00882359F10E
:100190004C2F417064E080E00E94A902C1FB44271B
:1001A00040F965E080E00E94A902C2FB442740F9C3
:1001B00066E080E00E94A902C3FB442740F967E0A3
:1001C00080E00E94A90241E063E081E00E94A90270
:1001D00083EC99E00197F1F700C0000040E063E094
:1001E00081E00E94A902CF91089561E080E00E9421
:1001F000110261E081E00E9411022FE58AEE90E099
:10020000215080409040E1F700C0000080E20E9451
:100210008B0080E20E948B0080E80E948B0083ECC0
:1002200099E00197F1F700C0000080E00E948B0088
:1002300080EF0E948B0083EC99E00197F1F700C0FA
:10024000000080E00E948B0080E10E948B0087E824
:1002500093E10197F1F700C0000081E080936A000C
:100260000895CF93C82F41E061E081E00E94A90288
:1002700040E062E081E00E94A902C4FB442740F90B
:1002800064E080E00E94A902C5FB442740F965E0D4
:1002900080E00E94A902C6FB442740F966E080E0A6
:1002A0000E94A9024C2F441F4427441F67E080E0AE
:1002B0000E94A90241E063E081E00E94A90283EC70
:1002C00099E00197F1F700C0000040E063E081E0B1
:1002D0000E94A9024C2F417064E080E00E94A902B4
:1002E000C1FB442740F965E080E00E94A902C2FBFF
:1002F000442740F966E080E00E94A902C3FB44273E
:1003000040F967E080E00E94A90241E063E081E0FB
:100310000E94A90283EC99E00197F1F700C0000068
:1003200040E063E081E00E94A902CF91089582300D
:1003300050F4603140F490E4899F600D1124862FC1
:1003400080680E948B000895EF92FF920F931F9395
:10035000CF93DF938C01D62FF42E642F8D2F0E9424
:100360009701E12CC0E01AC02031310524F40E942D
:100370003101CF5F13C02031310539F460E081E0F5
:100380000E949701EE24E39409C02032310534F431
:1003900091E0E91203C00E943101CF5FF801EC0F38
:1003A000F11D8081882361F02C2F30E090E1D99FEE
:1003B000200D311D11242F0D311D20323105A4F2E5
:1003C000DF91CF911F910F91FF90EF9008950E94C0
:1003D0004900FFCF87B18F7387B987B1806487B930
:1003E00086B1806286B980B78F7180BF80B780BFC9
:1003F00087B18F7D87B986B1806186B986B1806803
:1004000086B9089597B1907E97B997B1892B87B92E
:1004100086B1806486B90895349BFECF84B195B1CE
:1004200008956130A1F4813049F028F0823049F01C
:10043000833051F008958FEF8ABB08958FEF87BB0B
:1004400008958FEF84BB08958FEF81BB08956111EC
:100450000FC0813041F028F0823039F0833039F01C
:1004600008951ABA089517BA089514BA089511BADA
:100470000895411138C0813091F028F08230D9F0D0
:10048000833029F108952AB381E090E002C0880FFB
:10049000991F6A95E2F7809582238ABB089527B356
:1004A00081E090E002C0880F991F6A95E2F780957D
:1004B000822387BB089524B381E090E002C0880FB7
:1004C000991F6A95E2F78095822384BB089521B332
:1004D00081E090E002C0880F991F6A95E2F780954D
:1004E000822381BB0895413099F5813089F028F04D
:1004F0008230C9F0833011F108952AB381E090E091
:1005000002C0880F991F6A95E2F7822B8ABB089573
:1005100027B381E090E002C0880F991F6A95E2F747
:10052000822B87BB089524B381E090E002C0880F3E
:10053000991F6A95E2F7822B84BB089521B381E06D
:1005400090E002C0880F991F6A95E2F7822B81BB69
:1005500008954130A1F5813089F028F08230C9F04A
:10056000833011F108952BB381E090E002C0880F31
:10057000991F6A95E2F7822B8BBB089528B381E01F
:1005800090E002C0880F991F6A95E2F7822B88BB22
:10059000089525B381E090E002C0880F991F6A9505
:1005A000E2F7822B85BB089522B381E090E002C080
:1005B000880F991F6A95E2F7822B82BB089541113B
:1005C00037C0813091F028F08230D9F0833029F1A2
:1005D00008952BB381E090E002C0880F991F6A95BF
:1005E000E2F7809582238BBB089528B381E090E0E9
:1005F00002C0880F991F6A95E2F78095822388BB15
:10060000089525B381E090E002C0880F991F6A9594
:10061000E2F78095822385BB089522B381E090E0C4
:1006200002C0880F991F6A95E2F78095822382BBEA
:100630000895813079F028F08230A9F08330E1F01C
:1006400024C089B390E002C0959587956A95E2F73A
:100650008170089586B390E002C0959587956A955C
:10066000E2F78170089583B390E002C09595879575
:100670006A95E2F78170089589B390E002C095957C
:1006800087956A95E2F78170089580E00895BB2709
:100690004A3031F4992322F4BDE2909581959F4F21
:1006A0000C945303BB27FB015527AA27880F991FDA
:1006B000AA1FA41710F0A41B83955051B9F7A05D91
:1006C000AA3308F0A95DA193009779F7B111B1930E
:1006D0001192CB010C946C03DC01FC01672F71912A
:1006E0007723E1F7329704C07C916D937083629118
:0C06F000AE17BF07C8F30895F894FFCFC1
:0A06FC0020202020202020202000D4
:00000001FF
